{
  "contractName": "C2CTest",
  "abi": [
    {
      "constant": true,
      "inputs": [
        {
          "name": "",
          "type": "address"
        },
        {
          "name": "",
          "type": "uint256"
        }
      ],
      "name": "global_map",
      "outputs": [
        {
          "name": "oid",
          "type": "uint256"
        },
        {
          "name": "to",
          "type": "address"
        },
        {
          "name": "value",
          "type": "uint256"
        },
        {
          "name": "status",
          "type": "bool"
        }
      ],
      "payable": false,
      "stateMutability": "view",
      "type": "function"
    },
    {
      "constant": false,
      "inputs": [
        {
          "name": "to",
          "type": "address"
        },
        {
          "name": "Oid",
          "type": "uint256"
        }
      ],
      "name": "order_make",
      "outputs": [],
      "payable": true,
      "stateMutability": "payable",
      "type": "function"
    },
    {
      "constant": false,
      "inputs": [
        {
          "name": "id",
          "type": "uint256"
        }
      ],
      "name": "order_confirm",
      "outputs": [],
      "payable": true,
      "stateMutability": "payable",
      "type": "function"
    }
  ],
  "bytecode": "0x608060405234801561001057600080fd5b50610761806100206000396000f300608060405260043610610057576000357c0100000000000000000000000000000000000000000000000000000000900463ffffffff1680633b6087971461005c578063599aa7ad1461009c578063c1d3ef9c146100bc575b600080fd5b61009a600480360381019080803573ffffffffffffffffffffffffffffffffffffffff16906020019092919080359060200190929190505050610162565b005b6100ba60048036038101908080359060200190929190505050610348565b005b3480156100c857600080fd5b50610107600480360381019080803573ffffffffffffffffffffffffffffffffffffffff1690602001909291908035906020019092919050505061056f565b604051808581526020018473ffffffffffffffffffffffffffffffffffffffff1673ffffffffffffffffffffffffffffffffffffffff1681526020018381526020018215151515815260200194505050505060405180910390f35b600080339150349050808273ffffffffffffffffffffffffffffffffffffffff163110151515610220576040517f08c379a00000000000000000000000000000000000000000000000000000000081526004018080602001828103825260238152602001807f62616c616e6365206973206e6f7420656e6f75676820746f206d616b65206f7281526020017f646572000000000000000000000000000000000000000000000000000000000081525060400191505060405180910390fd5b6000808373ffffffffffffffffffffffffffffffffffffffff1673ffffffffffffffffffffffffffffffffffffffff1681526020019081526020016000206080604051908101604052808581526020018673ffffffffffffffffffffffffffffffffffffffff16815260200183815260200160001515815250908060018154018082558091505090600182039060005260206000209060040201600090919290919091506000820151816000015560208201518160010160006101000a81548173ffffffffffffffffffffffffffffffffffffffff021916908373ffffffffffffffffffffffffffffffffffffffff1602179055506040820151816002015560608201518160030160006101000a81548160ff02191690831515021790555050505050505050565b600080600033925061035a33856105e8565b91507fffffffffffffffffffffffffffffffffffffffffffffffffffffffffffffffff82141515156103f4576040517f08c379a00000000000000000000000000000000000000000000000000000000081526004018080602001828103825260188152602001807f74686973206f726465722069736ee2809874206578697374000000000000000081525060200191505060405180910390fd5b6000808473ffffffffffffffffffffffffffffffffffffffff1673ffffffffffffffffffffffffffffffffffffffff1681526020019081526020016000208281548110151561043f57fe5b90600052602060002090600402019050600115158160030160009054906101000a900460ff161515141515156104dd576040517f08c379a00000000000000000000000000000000000000000000000000000000081526004018080602001828103825260198152602001807f74686973206f726465722068617320206265656e20706169640000000000000081525060200191505060405180910390fd5b60018160030160006101000a81548160ff0219169083151502179055508060010160009054906101000a900473ffffffffffffffffffffffffffffffffffffffff1673ffffffffffffffffffffffffffffffffffffffff166108fc82600201549081150290604051600060405180830381858888f19350505050158015610568573d6000803e3d6000fd5b5050505050565b60006020528160005260406000208181548110151561058a57fe5b9060005260206000209060040201600091509150508060000154908060010160009054906101000a900473ffffffffffffffffffffffffffffffffffffffff16908060020154908060030160009054906101000a900460ff16905084565b60008060007fffffffffffffffffffffffffffffffffffffffffffffffffffffffffffffffff915060008060008773ffffffffffffffffffffffffffffffffffffffff1673ffffffffffffffffffffffffffffffffffffffff1681526020019081526020016000208054905014156106625781925061072d565b600090505b6000808673ffffffffffffffffffffffffffffffffffffffff1673ffffffffffffffffffffffffffffffffffffffff1681526020019081526020016000208054905081101561072957836000808773ffffffffffffffffffffffffffffffffffffffff1673ffffffffffffffffffffffffffffffffffffffff168152602001908152602001600020828154811015156106fc57fe5b906000526020600020906004020160000154141561071c5780925061072d565b8080600101915050610667565b8192505b5050929150505600a165627a7a723058202c0dcf784eaabbf22353208c0ac6168444c986aed54adc9e1d7163b8ed1efe060029",
  "source": "pragma solidity ^0.4.0;\n\ncontract C2CTest{\n    \n    struct order{\n        uint oid;\n        address to;\n        uint value;\n        bool status;\n    }\n    \n    mapping(address => order[]) public global_map;\n\n    function order_make( address to  , uint Oid) public payable{\n        address from = msg.sender;\n        uint value = msg.value;\n        require(from.balance >= value , \"balance is not enough to make order\");\n        \n        global_map[from].push(order({\n            oid : Oid,\n            to : to,\n            value : value,\n            status : false\n        }));\n\n    }\n    \n    function order_confirm(uint id) public payable{\n        address from = msg.sender;\n        \n        uint index = check_in(msg.sender , id);\n        require( index != uint(-1) , \"this order isn‘t exist\");\n    \n        order storage now_order = global_map[from][index];\n        require(now_order.status != true , \"this order has  been paid\");\n    \n        now_order.status = true;\n        now_order.to.transfer(now_order.value);\n    }\n    \n    function check_in(address from , uint Oid) private view returns (uint){\n        uint fail = uint(-1);\n        if(global_map[from].length == 0)\n            return fail;\n        \n        for(uint i = 0 ; i < global_map[from].length ; i++)\n            if(global_map[from][i].oid == Oid)\n                return i;\n        return fail;\n    }\n}",
  "sourcePath": "/home/prob/Desktop/BlockChainC2C/contracts/C2CTest.sol",
  "compiler": {
    "name": "solc",
    "version": "0.4.24+commit.e67f0147.Emscripten.clang"
  },
  "schemaVersion": "2.0.1",
  "updatedAt": "2018-12-04T01:47:34.418Z"
}